{
  "contractName": "Wallet",
  "abi": [
    {
      "inputs": [],
      "stateMutability": "nonpayable",
      "type": "constructor"
    },
    {
      "anonymous": false,
      "inputs": [
        {
          "indexed": false,
          "internalType": "address",
          "name": "from",
          "type": "address"
        },
        {
          "indexed": false,
          "internalType": "uint256",
          "name": "amount",
          "type": "uint256"
        }
      ],
      "name": "Received",
      "type": "event"
    },
    {
      "anonymous": false,
      "inputs": [
        {
          "indexed": false,
          "internalType": "address",
          "name": "from",
          "type": "address"
        },
        {
          "indexed": false,
          "internalType": "uint256",
          "name": "amount",
          "type": "uint256"
        }
      ],
      "name": "Withdraw",
      "type": "event"
    },
    {
      "inputs": [],
      "name": "owner",
      "outputs": [
        {
          "internalType": "address payable",
          "name": "",
          "type": "address"
        }
      ],
      "stateMutability": "view",
      "type": "function",
      "constant": true
    },
    {
      "stateMutability": "payable",
      "type": "receive",
      "payable": true
    },
    {
      "inputs": [
        {
          "internalType": "uint256",
          "name": "_amount",
          "type": "uint256"
        }
      ],
      "name": "withdraw",
      "outputs": [],
      "stateMutability": "nonpayable",
      "type": "function"
    },
    {
      "inputs": [],
      "name": "getBalance",
      "outputs": [
        {
          "internalType": "uint256",
          "name": "",
          "type": "uint256"
        }
      ],
      "stateMutability": "view",
      "type": "function",
      "constant": true
    }
  ],
  "bytecode": "0x608060405234801561001057600080fd5b50336000806101000a81548173ffffffffffffffffffffffffffffffffffffffff021916908373ffffffffffffffffffffffffffffffffffffffff160217905550610338806100606000396000f3fe6080604052600436106100385760003560e01c806312065fe01461007d5780632e1a7d4d146100a85780638da5cb5b146100d157610078565b36610078577f88a5966d370b9919b20f3e2c13ff65706f196a4e32cc2c12bf57088f88525874333460405161006e929190610224565b60405180910390a1005b600080fd5b34801561008957600080fd5b506100926100fc565b60405161009f919061024d565b60405180910390f35b3480156100b457600080fd5b506100cf60048036038101906100ca9190610299565b610104565b005b3480156100dd57600080fd5b506100e66101a6565b6040516100f391906102e7565b60405180910390f35b600047905090565b60008054906101000a900473ffffffffffffffffffffffffffffffffffffffff1673ffffffffffffffffffffffffffffffffffffffff163373ffffffffffffffffffffffffffffffffffffffff161461015c57600080fd5b3373ffffffffffffffffffffffffffffffffffffffff166108fc829081150290604051600060405180830381858888f193505050501580156101a2573d6000803e3d6000fd5b5050565b60008054906101000a900473ffffffffffffffffffffffffffffffffffffffff1681565b600073ffffffffffffffffffffffffffffffffffffffff82169050919050565b60006101f5826101ca565b9050919050565b610205816101ea565b82525050565b6000819050919050565b61021e8161020b565b82525050565b600060408201905061023960008301856101fc565b6102466020830184610215565b9392505050565b60006020820190506102626000830184610215565b92915050565b600080fd5b6102768161020b565b811461028157600080fd5b50565b6000813590506102938161026d565b92915050565b6000602082840312156102af576102ae610268565b5b60006102bd84828501610284565b91505092915050565b60006102d1826101ca565b9050919050565b6102e1816102c6565b82525050565b60006020820190506102fc60008301846102d8565b9291505056fea264697066735822122098ef77a1d5cded54c6a12a6236f40a7393b56683969d2cc769f601e26e08531664736f6c634300080d0033",
  "immutableReferences": {},
  "source": "// SPDX-License-Identifier: MIT\npragma solidity ^0.8.10;\n\ncontract Wallet {\n    address payable public owner;\n\n    modifier isOwner() {\n        require(msg.sender == owner);\n        _;\n    }\n\n    event Received(address from, uint256 amount);\n    event Withdraw(address from, uint256 amount);\n\n    constructor() {\n        owner = payable(msg.sender);\n    }\n\n    receive() external payable {\n        emit Received(msg.sender, msg.value);\n    }\n\n    function withdraw(uint256 _amount) external isOwner {\n        payable(msg.sender).transfer(_amount);\n    }\n\n    function getBalance() external view returns (uint256) {\n        return address(this).balance;\n    }\n}\n",
  "sourcePath": "/Users/tsengmj/Documents/MJTseng/solidity/contracts/Wallet.sol",
  "compiler": {
    "name": "solc",
    "version": "0.8.13+commit.abaa5c0e.Emscripten.clang"
  },
  "schemaVersion": "3.4.6",
  "updatedAt": "2022-03-22T01:20:21.312Z",
  "networkType": "ethereum",
  "devdoc": {
    "kind": "dev",
    "methods": {},
    "version": 1
  },
  "userdoc": {
    "kind": "user",
    "methods": {},
    "version": 1
  }
}